:020000040800F2
:10000000C81700202902000805050008E1040008BF
:1000100001050008050400081B0B00080000000093
:10002000000000000000000000000000C106000801
:10003000090400080000000095050008D907000821
:10004000430200084302000843020008430200087C
:10005000430200084302000843020008430200086C
:10006000430200084302000843020008430200085C
:10007000430200084302000843020008430200084C
:10008000430200084302000843020008430200083C
:10009000430200084302000843020008430200082C
:1000A000430200084302000843020008430200081C
:1000B0004302000845080008430200084302000804
:1000C00043020008430200084302000843020008FC
:1000D00043020008430200084302000843020008EC
:1000E00043020008430200084302000843020008DC
:1000F00043020008430200084302000843020008CC
:1001000043020008430200084302000843020008BB
:10011000D90800084302000843020008430200080F
:10012000430200084302000843020008430200089B
:10013000430200084302000843020008430200088B
:10014000430200084302000843020008430200087B
:10015000430200084302000843020008430200086B
:10016000430200084302000843020008430200085B
:10017000430200084302000843020008430200084B
:10018000430200084302000800F002F800F03CF8C7
:100190000AA090E8000C82448344AAF10107DA45E2
:1001A00001D100F031F8AFF2090EBAE80F0013F0F8
:1001B000010F18BFFB1A43F0010318479C0E000003
:1001C000BC0E0000103A24BF78C878C1FAD8520794
:1001D00024BF30C830C144BF04680C6070470000C1
:1001E0000023002400250026103A28BF78C1FBD840
:1001F000520728BF30C148BF0B6070471FB500F0E1
:1002000025FF1FBD10B510BD00F0B8F81146FFF76F
:10021000F5FF00F0FBFD00F0EAF803B4FFF7F2FF92
:1002200003BC00F07CFC00000948804709480047F7
:10023000FEE7FEE7FEE7FEE7FEE7FEE7FEE7FEE796
:10024000FEE7FEE704480549054A064B70470000F3
:10025000DD07000889010008C8110020C817002028
:10026000C8130020C8130020704700000FB40449D1
:1002700010B503AA029800F02BF810BC5DF814FB2F
:10028000180000204FF000020429C0F0128010F086
:10029000030C00F03180CCF1040CBCF1020F18BF4C
:1002A00000F8012BA8BF20F8022BA1EB0C0100F0F5
:1002B00023B85FEAC17C24BF00F8012B00F8012BB2
:1002C00048BF00F8012B7047704770477047704770
:1002D000074B70B50D467B4400F039F804462846BC
:1002E00000F048F810B14FF0FF3070BD204670BDEF
:1002F0000B0900004FF0000200B5134694469646E5
:10030000203922BFA0E80C50A0E80C50B1F1200128
:10031000BFF4F7AF090728BFA0E80C5048BF0CC0D6
:100320005DF804EB890028BF40F8042B08BF704734
:1003300048BF20F8022B11F0804F18BF00F8012BA6
:100340007047000001694A1C02610878704700B5D7
:100350008FB0CDE901310021059105497944CDE9FE
:1003600003101146684600F02EF80FB000BD0000E3
:10037000E5FFFFFF007B00F080007047754600F04E
:100380003DF8AE4605006946534620F00700854615
:1003900018B020B5FFF756FFBDE820404FF000062B
:1003A0004FF000074FF000084FF0000B21F007015D
:1003B000AC46ACE8C009ACE8C009ACE8C009ACE8A0
:1003C000C0098D4670472DE9F04106460024D6E964
:1003D0000170F5688046304603E04146B847641C2A
:1003E0003046A8470028F8D12046BDE8F0810446F1
:1003F000AFF300802046FFF710FF00000048704771
:100400006411002000BFFEE77047F0B50A460021E6
:100410000023002400BF3DE0012505FA01F3156823
:1004200005EA03049C4234D105684F000326BE4010
:10043000B543056015794E00B54006683543056043
:100440001579012D02D01579022D16D185684F003E
:100450000326BE40B543856055794E00B540866899
:1004600035438560456801268E40B5434560456843
:1004700096798E40B6B235434560C5684F00032675
:10048000BE40B543C560D5794E00B540C66835431A
:10049000C560491C1029BFD3F0BDF0B5002300246E
:1004A0004D07ED0E02FA05F3CE1000F1200555F8C8
:1004B00026504E07F70E0F26BE40B543CF1000F171
:1004C000200646F82750CE1000F1200555F826509A
:1004D00045EA0304CE1000F1200545F82640F0BDA2
:1004E00000BFFEE710B502460B460020002104E0E5
:1004F000545C0444E0B24C1CE1B29942F8DB10BDFC
:1005000000BFFEE77047000070B5002100230F22F6
:10051000C4781CB3174C246804F4E064C4F5E064A8
:10052000C4F30721C1F10404E3B20A4144789C40BA
:10053000E1B28478144021430C07210E0E4C05785B
:100540006155047804F01F050124AC4005786D1155
:10055000AD0005F1E025C5F8004109E0047804F09C
:100560001F050124AC40054D0678761145F826405C
:1005700070BD00000CED00E000E400E080E100E070
:1005800002490143024A1160704700000000FA0569
:100590000CED00E07047000029B1064A12680243E2
:1005A000044B1A6004E0034A12688243014B1A604C
:1005B000704700003038024029B1064A12680243F1
:1005C000044B1A6004E0034A12688243014B1A602C
:1005D0007047000040380240F0B50021002200249E
:1005E000022500260223324F3F6807F00C0121B19B
:1005F000042905D0082937D105E02E4F076036E0E1
:100600002D4F076033E02A4F3F1F3F68C7F38056E6
:10061000274F3F1F3F6807F03F036EB1264FB7FBE0
:10062000F3F7DFF88CC0ACF1040CDCF800C0CCF3BD
:10063000881C07FB0CF40CE01E4FB7FBF3F7DFF848
:1006400070C0ACF1040CDCF800C0CCF3881C07FBD4
:100650000CF4174F3F1F3F68C7F301477F1C7D0015
:10066000B4FBF5F7076002E0124F076000BF00BF60
:100670000F4F3F6807F0F0010909104F7A5C0768D7
:10068000D74047600A4F3F6807F4E051890A0B4F93
:100690007A5C4768D7408760054F3F6807F4604140
:1006A000490B064F7A5C4768D740C760F0BD000031
:1006B000083802400024F40000127A001E000020D6
:1006C000704700000CB5002001900090344800688D
:1006D00040F480303249086000BF3148006800F4BF
:1006E000003000900198401C0190009818B90198C2
:1006F000B0F5A04FF1D12A48006800F4003010B1E5
:100700000120009001E0002000900098012846D1CF
:1007100023484030006840F0805021494031086053
:100720002048006840F440401E4908601C480830DA
:1007300000681B49083108600846006840F4004022
:1007400008600846006840F4A05008601648091F79
:100750000860081F006840F08070091F086000BF33
:100760000F48006800F000700028F9D040F20570D2
:100770000E4908600A480830006820F00300084964
:10078000083108600846006840F00200086000BFB9
:1007900003480830006800F00C000828F8D10CBDB0
:1007A000003802400070004008544007003C0240FE
:1007B000042808D14FF0E021096941F004014FF00D
:1007C000E022116107E04FF0E021096921F0040106
:1007D0004FF0E022116170477047000010B51548D6
:1007E000006840F47000134908601348006840F046
:1007F00001001149086000200F49083108600E48C7
:1008000000680E4908400C4908600D48091D086041
:10081000081F006820F48020091F08600020064996
:100820000C310860FFF74EFF4FF00060014980393E
:10083000086010BD88ED00E000380240FFFFF6FEC2
:100840001030002410B50D480068401C0B490860AA
:100850000BA0FFF70BFD0121144800F02CF801213B
:10086000124800F025F80548006841F288318842B6
:1008700002DD00200149086010BD000004000020D6
:1008800041542B43495053544152543D22544350F8
:10089000222C223232312E3232362E36392E32335B
:1008A00034222C2236303032220D0A00000400405F
:1008B000CA430282704730B502460020002300245C
:1008C000158A05EA0103958905EA010413B10CB103
:1008D000012000E0002030BD10B500BF40F22551DE
:1008E000104800F058F860B10E4800F00DF9C1B2A0
:1008F0000D4802780078401C0B4B18700B4881544F
:100900000FE040F22441074800F045F848B105489F
:100910000088C4B20348001D0088C4B20120044905
:10092000087010BD004C00400D000020D00F0020CA
:100930001400002070B505460E4600240CE0295D29
:10094000074800F0E6F800BF4021054800F016F81F
:100950000128F9D1601CC4B2B442F0DB70BD0000C4
:10096000004C004021B1828942F40052828104E0AF
:1009700082894DF6FF731A4082817047024600203B
:10098000B1F5007F00D100BF13880B400BB10120EF
:1009900000E00020704770B50246002400230025C7
:1009A000002040F66A16B14200D100BFC1F34215E3
:1009B00001F01F03012606FA03F3012D02D19689E7
:1009C000334006E0022D02D1168A334001E0968AB8
:1009D00033400C12012606FA04F41688344013B191
:1009E0000CB1012000E0002070BDF0B503460024EA
:1009F00000260025002040F66A17B94200D100BF4A
:100A00001846C1F3421401F01F06012707FA06F544
:100A1000012C01D10C3004E0022C01D1103000E097
:100A200014301AB107682F43076002E00768AF432C
:100A30000760F0BD2DE9FF4705460E460024A1469C
:100A400000BFA046B08900B100BF2C8A24F44054F6
:100A5000F08804432C82AC8941F20C608443B08856
:100A600031890843718908430443AC81AC8A24F47A
:100A70004074B0890443AC826846FFF7ADFD20485E
:100A8000854202D01F48854202D1DDF80C9001E07A
:100A9000DDF80890A88900F4004040B109EBC900D6
:100AA00000EB091031684900B0FBF1F707E009EBF2
:100AB000C90000EB091031688900B0FBF1F7642030
:100AC000B7FBF0F004012009642101FB1078A8892C
:100AD00000F4004040B1322000EBC800B0FBF1F060
:100AE00000F00700044308E0322000EB0810642106
:100AF000B0FBF1F000F00F0004432C81BDE8FF874C
:100B0000001001400014014001468888C0F308002D
:100B10007047C1F308028280704700BFFEE70146BC
:100B200000BF704710B504466FF00400FFF740FEA9
:100B3000E11704EB5171C1F3C701074A1170104668
:100B4000007800EB4001C1EBC0104FF6FF7101EAE5
:100B5000C0000249088010BD080000200A000020E3
:100B600070B504464FF4077094FBF0F0C6B24FF432
:100B7000077094FBF0F100FB114085B205E04FF4E3
:100B8000077000F009F8701EC6B2002EF7D115B13B
:100B9000284600F001F870BD0146114A12884A4308
:100BA0004FF0E0235A6100229A611A46126942F01E
:100BB00001021A6100BF4FF0E022106900F001024B
:100BC0001AB100F48032002AF5D04FF0E022126909
:100BD00022F001024FF0E0231A6100229A6170476F
:100BE0000A00002070B504460D4600BF40210948A8
:100BF000FFF7C4FE0028F9D0E1B20648FFF789FFED
:100C000000BF40210348FFF7B9FE0028F9D0204675
:100C100070BD0000004C00401CB5774800781028DB
:100C200029D175484078472825D17448007805288F
:100C300021D17148007916281DD110207049087003
:100C4000002048706C488078887002206D490870D8
:100C5000084601786A48401CFFF744FC6849C870A0
:100C60001620087105206749087008460178644815
:100C7000FFF760FEBFE060480078102829D15E4889
:100C80004078492825D15D480078052821D15A4867
:100C9000007916281DD11020594908700B20487082
:100CA00055488078887002205649087008460178B7
:100CB0005348401CFFF716FC5149C87016200871B4
:100CC000052050490870084601784D48FFF732FE6C
:100CD00091E049480078682835D1484800780F28C5
:100CE00031D14548807B16282DD100F04BF91020DA
:100CF0004349087048704048407988700220414953
:100D00000870084601783E48401CFFF7EBFB3C4961
:100D1000C8701620087105203A4908700846017805
:100D20003748FFF707FE68208DF80000324840780A
:100D30008DF80100304800798DF802002E48407986
:100D40008DF8030057E02C480078102853D12A482A
:100D500040785B284FD12948007805284BD1264898
:100D60000079162847D19DF8000025490870162003
:100D7000487088709DF80000C870082008719DF8C0
:100D800003004871322088710720C8710220087260
:100D90009DF803004872012088725C20C872F82018
:100DA0000873FF204873F8208873FF20C873002061
:100DB00008744874F8208874FF20C874F8200875F7
:100DC000FF204875F8208875FF20C875F820087640
:100DD000FF20487616210A48001DFFF783FB0849CB
:100DE00088761620C8761C200749087008460178C6
:100DF0000348FFF79FFD1CBDD00F00200D00002011
:100E000000080020000000200100002000BF4FF477
:100E1000A060FFF7B5FBA820FFF784FE4FF4E13098
:100E200000F0B2F82AA0FFF721FA4FF47A70FFF72A
:100E300097FE29A0FFF71AFA4FF47A70FFF790FE99
:100E400027A0FFF713FA4FF47A70FFF789FE29A065
:100E5000FFF70CFA4FF47A70FFF782FE2CA0FFF731
:100E600005FA4FF47A70FFF77BFE2DA0FFF7FEF92D
:100E70004FF47A70FFF774FE30A0FFF7F7F933A054
:100E8000FFF7F4F94FF47A70FFF76AFE4FF47A70C7
:100E9000FFF766FE4FF47A70FFF762FE4FF47A7048
:100EA000FFF75EFE51213448FFF7ECF9002033498B
:100EB00008700BE032480078012807D10020304943
:100EC0000870FFF7A9FE00202C490870F2E7000027
:100ED00041540D0A00000000415426460D0A00004E
:100EE00041542B4347434C4153533D2242220D0A68
:100EF0000000000041542B434744434F4E543D31C2
:100F00002C224950222C22434D4E4554220D0A00DA
:100F100041542B43474154543D310D0A0000000019
:100F200041542B434C504F52543D22544350222C99
:100F30002232303030220D0A0000000041542B4391
:100F400049504D4F44453D310D0A000041542B435B
:100F5000495053544152543D22544350222C223282
:100F600032312E3232362E36392E323334222C2282
:100F700036303032220D0A00D00F00200D00002044
:100F8000140000207047000010B588B0044601210D
:100F90000420FFF701FB0121C804FFF70DFB082225
:100FA0000A212848FFF779FA08220B212548FFF784
:100FB00074FA4FF44060069002208DF81C008DF802
:100FC0001D0000208DF81E0001208DF81F0006A9CD
:100FD0001C48FFF71AFA02940020ADF80C00ADF897
:100FE0000E00ADF81000ADF814000C20ADF81200A2
:100FF00002A91548FFF71EFD01211348FFF7B2FCB7
:10100000012240F224411048FFF7EFFC012240F298
:1010100025510D48FFF7E9FC012240F225510A480D
:10102000FFF7E3FC34208DF8040003208DF8050061
:101030008DF8060001208DF8070001A8FFF764FA7B
:1010400008B010BD00080240004C00404FF0407056
:10105000E1EE100A70470000781000080000002040
:1010600030000000C4010008A81000083000002073
:1010700098170000E00100080000000000000000D8
:101080000000000000000000000000000000000060
:101090000000000000000000000001020304010243
:0810A000030406070809000023
:040000050800018965
:00000001FF
